{
  "address": "0x539415299EFDFd7c41c14952294c27b7Fee1e43E",
  "abi": [
    {
      "inputs": [
        {
          "internalType": "address",
          "name": "_token",
          "type": "address"
        }
      ],
      "stateMutability": "nonpayable",
      "type": "constructor"
    },
    {
      "inputs": [
        {
          "internalType": "address",
          "name": "",
          "type": "address"
        }
      ],
      "name": "balanceOf",
      "outputs": [
        {
          "internalType": "uint256",
          "name": "",
          "type": "uint256"
        }
      ],
      "stateMutability": "view",
      "type": "function"
    },
    {
      "inputs": [
        {
          "internalType": "uint256",
          "name": "_amount",
          "type": "uint256"
        }
      ],
      "name": "deposit",
      "outputs": [],
      "stateMutability": "nonpayable",
      "type": "function"
    },
    {
      "inputs": [],
      "name": "token",
      "outputs": [
        {
          "internalType": "contract IERC20",
          "name": "",
          "type": "address"
        }
      ],
      "stateMutability": "view",
      "type": "function"
    },
    {
      "inputs": [],
      "name": "totalSupply",
      "outputs": [
        {
          "internalType": "uint256",
          "name": "",
          "type": "uint256"
        }
      ],
      "stateMutability": "view",
      "type": "function"
    },
    {
      "inputs": [
        {
          "internalType": "uint256",
          "name": "_shares",
          "type": "uint256"
        }
      ],
      "name": "withdraw",
      "outputs": [],
      "stateMutability": "nonpayable",
      "type": "function"
    }
  ],
  "transactionHash": "0xce9e13c26565e1cfaf17facfc6d7a3f56f2ebc53c57ab481c7486b58c1f2baac",
  "args": [
    "0xC330afab9D4cf3a38F6E3Db9cc4422c0BC9730c0"
  ],
  "numDeployments": 1,
  "solcInputHash": "34957d3920b00bb3264b493cae6376c4",
  "bytecode": "0x60a060405234801561001057600080fd5b50604051610acc380380610acc83398181016040528101906100329190610084565b8073ffffffffffffffffffffffffffffffffffffffff1660808173ffffffffffffffffffffffffffffffffffffffff1660601b81525050506100ff565b60008151905061007e816100e8565b92915050565b60006020828403121561009a576100996100e3565b5b60006100a88482850161006f565b91505092915050565b60006100bc826100c3565b9050919050565b600073ffffffffffffffffffffffffffffffffffffffff82169050919050565b600080fd5b6100f1816100b1565b81146100fc57600080fd5b50565b60805160601c6109936101396000396000818161010c015281816101d6015281816102b401528181610382015261043601526109936000f3fe608060405234801561001057600080fd5b50600436106100575760003560e01c806318160ddd1461005c5780632e1a7d4d1461007a57806370a0823114610096578063b6b55f25146100c6578063fc0c546a146100e2575b600080fd5b610064610100565b6040516100719190610707565b60405180910390f35b610094600480360381019061008f91906105ea565b610106565b005b6100b060048036038101906100ab9190610590565b610286565b6040516100bd9190610707565b60405180910390f35b6100e060048036038101906100db91906105ea565b61029e565b005b6100ea610434565b6040516100f791906106ec565b60405180910390f35b60005481565b600080547f000000000000000000000000000000000000000000000000000000000000000073ffffffffffffffffffffffffffffffffffffffff166370a08231306040518263ffffffff1660e01b81526004016101639190610671565b60206040518083038186803b15801561017b57600080fd5b505afa15801561018f573d6000803e3d6000fd5b505050506040513d601f19601f820116820180604052508101906101b39190610617565b836101be91906107a9565b6101c89190610778565b90506101d43383610458565b7f000000000000000000000000000000000000000000000000000000000000000073ffffffffffffffffffffffffffffffffffffffff1663a9059cbb33836040518363ffffffff1660e01b815260040161022f9291906106c3565b602060405180830381600087803b15801561024957600080fd5b505af115801561025d573d6000803e3d6000fd5b505050506040513d601f19601f8201168201806040525081019061028191906105bd565b505050565b60016020528060005260406000206000915090505481565b60008060005414156102b257819050610376565b7f000000000000000000000000000000000000000000000000000000000000000073ffffffffffffffffffffffffffffffffffffffff166370a08231306040518263ffffffff1660e01b815260040161030b9190610671565b60206040518083038186803b15801561032357600080fd5b505afa158015610337573d6000803e3d6000fd5b505050506040513d601f19601f8201168201806040525081019061035b9190610617565b6000548361036991906107a9565b6103739190610778565b90505b61038033826104ca565b7f000000000000000000000000000000000000000000000000000000000000000073ffffffffffffffffffffffffffffffffffffffff166323b872dd3330856040518463ffffffff1660e01b81526004016103dd9392919061068c565b602060405180830381600087803b1580156103f757600080fd5b505af115801561040b573d6000803e3d6000fd5b505050506040513d601f19601f8201168201806040525081019061042f91906105bd565b505050565b7f000000000000000000000000000000000000000000000000000000000000000081565b806000808282546104699190610803565b9250508190555080600160008473ffffffffffffffffffffffffffffffffffffffff1673ffffffffffffffffffffffffffffffffffffffff16815260200190815260200160002060008282546104bf9190610803565b925050819055505050565b806000808282546104db9190610722565b9250508190555080600160008473ffffffffffffffffffffffffffffffffffffffff1673ffffffffffffffffffffffffffffffffffffffff16815260200190815260200160002060008282546105319190610722565b925050819055505050565b60008135905061054b81610918565b92915050565b6000815190506105608161092f565b92915050565b60008135905061057581610946565b92915050565b60008151905061058a81610946565b92915050565b6000602082840312156105a6576105a5610913565b5b60006105b48482850161053c565b91505092915050565b6000602082840312156105d3576105d2610913565b5b60006105e184828501610551565b91505092915050565b600060208284031215610600576105ff610913565b5b600061060e84828501610566565b91505092915050565b60006020828403121561062d5761062c610913565b5b600061063b8482850161057b565b91505092915050565b61064d81610837565b82525050565b61065c8161087f565b82525050565b61066b81610875565b82525050565b60006020820190506106866000830184610644565b92915050565b60006060820190506106a16000830186610644565b6106ae6020830185610644565b6106bb6040830184610662565b949350505050565b60006040820190506106d86000830185610644565b6106e56020830184610662565b9392505050565b60006020820190506107016000830184610653565b92915050565b600060208201905061071c6000830184610662565b92915050565b600061072d82610875565b915061073883610875565b9250827fffffffffffffffffffffffffffffffffffffffffffffffffffffffffffffffff0382111561076d5761076c6108b5565b5b828201905092915050565b600061078382610875565b915061078e83610875565b92508261079e5761079d6108e4565b5b828204905092915050565b60006107b482610875565b91506107bf83610875565b9250817fffffffffffffffffffffffffffffffffffffffffffffffffffffffffffffffff04831182151516156107f8576107f76108b5565b5b828202905092915050565b600061080e82610875565b915061081983610875565b92508282101561082c5761082b6108b5565b5b828203905092915050565b600061084282610855565b9050919050565b60008115159050919050565b600073ffffffffffffffffffffffffffffffffffffffff82169050919050565b6000819050919050565b600061088a82610891565b9050919050565b600061089c826108a3565b9050919050565b60006108ae82610855565b9050919050565b7f4e487b7100000000000000000000000000000000000000000000000000000000600052601160045260246000fd5b7f4e487b7100000000000000000000000000000000000000000000000000000000600052601260045260246000fd5b600080fd5b61092181610837565b811461092c57600080fd5b50565b61093881610849565b811461094357600080fd5b50565b61094f81610875565b811461095a57600080fd5b5056fea2646970667358221220084b82d1fe94642649849baf70095994eb293637a0ebda44a06b6c9121bd506064736f6c63430008070033",
  "devdoc": {
    "kind": "dev",
    "methods": {},
    "version": 1
  },
  "userdoc": {
    "kind": "user",
    "methods": {},
    "version": 1
  },
  "storageLayout": {
    "storage": [
      {
        "astId": 268,
        "contract": "contracts/Vault.sol:Vault",
        "label": "totalSupply",
        "offset": 0,
        "slot": "0",
        "type": "t_uint256"
      },
      {
        "astId": 272,
        "contract": "contracts/Vault.sol:Vault",
        "label": "balanceOf",
        "offset": 0,
        "slot": "1",
        "type": "t_mapping(t_address,t_uint256)"
      }
    ],
    "types": {
      "t_address": {
        "encoding": "inplace",
        "label": "address",
        "numberOfBytes": "20"
      },
      "t_mapping(t_address,t_uint256)": {
        "encoding": "mapping",
        "key": "t_address",
        "label": "mapping(address => uint256)",
        "numberOfBytes": "32",
        "value": "t_uint256"
      },
      "t_uint256": {
        "encoding": "inplace",
        "label": "uint256",
        "numberOfBytes": "32"
      }
    }
  }
}